{
  "contractName": "TrueTree",
  "abi": [
    {
      "constant": true,
      "inputs": [],
      "name": "Owner",
      "outputs": [
        {
          "name": "",
          "type": "address"
        }
      ],
      "payable": false,
      "stateMutability": "view",
      "type": "function",
      "signature": "0xb4a99a4e"
    },
    {
      "constant": true,
      "inputs": [],
      "name": "Referrer",
      "outputs": [
        {
          "name": "",
          "type": "address"
        }
      ],
      "payable": false,
      "stateMutability": "view",
      "type": "function",
      "signature": "0xcb2a23da"
    },
    {
      "constant": true,
      "inputs": [],
      "name": "Admin",
      "outputs": [
        {
          "name": "",
          "type": "address"
        }
      ],
      "payable": false,
      "stateMutability": "view",
      "type": "function",
      "signature": "0xff1b636d"
    },
    {
      "inputs": [
        {
          "name": "_referrer",
          "type": "address"
        }
      ],
      "payable": false,
      "stateMutability": "nonpayable",
      "type": "constructor",
      "signature": "constructor"
    },
    {
      "payable": true,
      "stateMutability": "payable",
      "type": "fallback"
    },
    {
      "constant": true,
      "inputs": [],
      "name": "contractBalance",
      "outputs": [
        {
          "name": "",
          "type": "uint256"
        }
      ],
      "payable": false,
      "stateMutability": "view",
      "type": "function",
      "signature": "0x8b7afe2e"
    },
    {
      "constant": false,
      "inputs": [
        {
          "name": "_newAddress",
          "type": "address"
        }
      ],
      "name": "changeOwnerAddress",
      "outputs": [
        {
          "name": "",
          "type": "address"
        }
      ],
      "payable": false,
      "stateMutability": "nonpayable",
      "type": "function",
      "signature": "0x85eac05f"
    },
    {
      "constant": false,
      "inputs": [],
      "name": "triggerPayment",
      "outputs": [],
      "payable": true,
      "stateMutability": "payable",
      "type": "function",
      "signature": "0x00ce2057"
    }
  ],
  "bytecode": "0x608060405234801561001057600080fd5b5060405160208061060a8339810180604052602081101561003057600080fd5b810190808051906020019092919050505080600260006101000a81548173ffffffffffffffffffffffffffffffffffffffff021916908373ffffffffffffffffffffffffffffffffffffffff16021790555033600160006101000a81548173ffffffffffffffffffffffffffffffffffffffff021916908373ffffffffffffffffffffffffffffffffffffffff16021790555073bb9bc244d798123fde783fcc1c72d3bb8c1894136000806101000a81548173ffffffffffffffffffffffffffffffffffffffff021916908373ffffffffffffffffffffffffffffffffffffffff1602179055506000600260146101000a81548160ff0219169083600181111561013657fe5b0217905550506104bf8061014b6000396000f3fe608060405260043610610077576000357c0100000000000000000000000000000000000000000000000000000000900463ffffffff168062ce2057146100f457806385eac05f146100fe5780638b7afe2e1461018f578063b4a99a4e146101ba578063cb2a23da14610211578063ff1b636d14610268575b6000600181111561008457fe5b600260149054906101000a900460ff16600181111561009f57fe5b1415156100ab57600080fd5b3073ffffffffffffffffffffffffffffffffffffffff166108fc349081150290604051600060405180830381858888f193505050501580156100f1573d6000803e3d6000fd5b50005b6100fc6102bf565b005b34801561010a57600080fd5b5061014d6004803603602081101561012157600080fd5b81019080803573ffffffffffffffffffffffffffffffffffffffff16906020019092919050505061033a565b604051808273ffffffffffffffffffffffffffffffffffffffff1673ffffffffffffffffffffffffffffffffffffffff16815260200191505060405180910390f35b34801561019b57600080fd5b506101a4610403565b6040518082815260200191505060405180910390f35b3480156101c657600080fd5b506101cf610422565b604051808273ffffffffffffffffffffffffffffffffffffffff1673ffffffffffffffffffffffffffffffffffffffff16815260200191505060405180910390f35b34801561021d57600080fd5b50610226610448565b604051808273ffffffffffffffffffffffffffffffffffffffff1673ffffffffffffffffffffffffffffffffffffffff16815260200191505060405180910390f35b34801561027457600080fd5b5061027d61046e565b604051808273ffffffffffffffffffffffffffffffffffffffff1673ffffffffffffffffffffffffffffffffffffffff16815260200191505060405180910390f35b600160009054906101000a900473ffffffffffffffffffffffffffffffffffffffff1673ffffffffffffffffffffffffffffffffffffffff163373ffffffffffffffffffffffffffffffffffffffff1614151561031b57600080fd5b60003073ffffffffffffffffffffffffffffffffffffffff1631905050565b6000600160009054906101000a900473ffffffffffffffffffffffffffffffffffffffff1673ffffffffffffffffffffffffffffffffffffffff163373ffffffffffffffffffffffffffffffffffffffff1614151561039857600080fd5b81600160006101000a81548173ffffffffffffffffffffffffffffffffffffffff021916908373ffffffffffffffffffffffffffffffffffffffff160217905550600160009054906101000a900473ffffffffffffffffffffffffffffffffffffffff169050919050565b60003073ffffffffffffffffffffffffffffffffffffffff1631905090565b600160009054906101000a900473ffffffffffffffffffffffffffffffffffffffff1681565b600260009054906101000a900473ffffffffffffffffffffffffffffffffffffffff1681565b6000809054906101000a900473ffffffffffffffffffffffffffffffffffffffff168156fea165627a7a723058206eb33aff218fb64b393bd2efe76f8fd4e3e93d9609331c1a8542e08832ec8d450029",
  "source": "pragma solidity 0.5.0;\r\n\r\ncontract TrueTree {\r\n\r\n    address payable public Admin;\r\n    address payable public Owner;\r\n    // Referrer is the address of the contract of the referrer.\r\n    address payable public Referrer;\r\n\r\n    enum State {\r\n        active,\r\n        inactive\r\n    }\r\n\r\n    State contractState;\r\n\r\n    modifier contractIsActive() {\r\n        require(contractState == State.active);\r\n        _;\r\n    } \r\n\r\n    modifier onlyOwner() {\r\n        require(msg.sender == Owner);\r\n        _;\r\n    }\r\n\r\n    constructor(address payable _referrer) public {\r\n        Referrer = _referrer;\r\n        Owner = msg.sender;\r\n        Admin = 0xBB9bc244D798123fDe783fCc1C72d3Bb8C189413;\r\n        contractState = State.active;\r\n    }\r\n\r\n    function contractBalance() public view returns (uint256){\r\n        return address(this).balance;\r\n    }\r\n\r\n    function() external payable contractIsActive {\r\n        address(this).transfer(msg.value);\r\n    }\r\n\r\n    function changeOwnerAddress (address payable _newAddress) public onlyOwner returns (address payable) {\r\n        Owner = _newAddress;\r\n        return Owner;\r\n    }\r\n\r\n    function triggerPayment () public payable onlyOwner {\r\n        uint256 cashflow = address(this).balance;\r\n        \r\n    }\r\n}\r\n",
  "sourcePath": "C:/Users/Choco/Repos/true_tree/contracts/TrueTree.sol",
  "compiler": {
    "name": "solc",
    "version": "0.5.0+commit.1d4f565a.Emscripten.clang"
  },
  "schemaVersion": "3.0.3",
  "updatedAt": "2019-04-08T10:31:53.518Z",
  "devdoc": {
    "methods": {}
  },
  "userdoc": {
    "methods": {}
  }
}